:100000000C94AA000C946F040C9448040C94D20035
:100010000C94D2000C94D2000C94D2000C94D20018
:100020000C94D2000C94D2000C94D2000C94D20008
:100030000C94D2000C94D2000C94D2000C94D200F8
:100040000C94FE030C94D2000C94BF020C94990201
:100050000C94D2000C94D2000C94D2000C94D200D8
:100060000C94B40F0C94D200E612FE12FE12FA1297
:10007000FE12E412FE12FE12FE12D812FE12FE1240
:10008000ED12F812F612FE12FE12FE12F4124E419A
:100090004E494E495459494E46CDCCCC3D0AD72302
:1000A0003C17B7D13877CC2B329595E6241FB14F4A
:1000B0000A000020410000C84200401C4620BCBE8F
:1000C0004CCA1B0E5AAEC59D746364696E6F707323
:1000D0007578585B0031373A30333A313700536521
:1000E0007020313720323031380000000000240009
:1000F00027002A000000000023002600290000003D
:1001000000080002010000030407000000000000D6
:1001100000001F1C1F1E1F1E1F1F1E1F1E1F01026F
:100120000408102040800102040810200102040885
:10013000102000000000250028002B000404040407
:100140000404040402020202020203030303030381
:10015000EE17DE1711241FBECFEFD8E0DEBFCDBFF4
:1001600024E0A0E3B2E001C01D92A231B207E1F7A2
:1001700012E0A0E0B1E0E6E6FBE402C005900D92DB
:10018000A033B107D9F710E0C9EAD0E004C0219745
:10019000FE010E94A025C83AD107C9F70E94851127
:1001A0000C9429190C9400000895CF92DF92EF92DD
:1001B000FF920F931F93CF93DF936C017A018B0112
:1001C000C0E0D0E0CE15DF0589F0D8016D918D013A
:1001D000D601ED91FC910190F081E02DC6010995C9
:1001E000892B11F47E0102C02196ECCFC701DF916B
:1001F000CF911F910F91FF90EF90DF90CF900895D6
:10020000089580E090E00895FC01538D448D252FE2
:1002100030E0842F90E0821B930B541710F0CF96A0
:10022000089501970895FC01918D828D981761F0D2
:10023000828DDF01A80FB11D5D968C91928D9F5F1D
:100240009F73928F90E008958FEF9FEF0895FC01C8
:10025000918D828D981731F0828DE80FF11D858D7B
:1002600090E008958FEF9FEF0895FC01918D228D0E
:10027000892F90E0805C9F4F821B91098F73992793
:10028000089585E093E00E94350121E0892B09F46F
:1002900020E0822F0895FC01848DDF01A80FB11D9D
:1002A000A35ABF4F2C91848D90E001968F739927AC
:1002B000848FA689B7892C93A089B1898C91806499
:1002C0008C93938D848D981306C00288F389E02D5A
:1002D00080818F7D80830895EF92FF920F931F930B
:1002E000CF93DF93EC0181E0888F9B8D8C8D9813E9
:1002F00005C0E889F989808185FD24C0F62E0B8D23
:1003000010E00F5F1F4F0F731127E02E8C8DE81246
:100310000CC00FB607FCFACFE889F989808185FF08
:10032000F5CFCE010E944B01F1CF8B8DFE01E80F7E
:10033000F11DE35AFF4FF0820B8FEA89FB89808120
:10034000806207C0EE89FF896083E889F98980812E
:100350008064808381E090E0DF91CF911F910F91C5
:10036000FF90EF900895CF93DF93EC01888D882361
:10037000C9F0EA89FB89808185FD05C0A889B98912
:100380008C9186FD0FC00FB607FCF5CF808185FFED
:10039000F2CFA889B9898C9185FFEDCFCE010E945B
:1003A0004B01E7CFDF91CF910895833081F028F49E
:1003B000813099F08230A1F008958730A9F088301B
:1003C000B9F08430D1F4809180008F7D03C080919A
:1003D00080008F7780938000089584B58F7702C066
:1003E00084B58F7D84BD08958091B0008F7703C060
:1003F0008091B0008F7D8093B000089508950E9491
:100400004D1EFC0124813581232B31F421E061153F
:100410007105A1F0FB0108C0FC018081918161158B
:10042000710531F421E0FC018081882339F005C099
:100430000E945B1E21E0892B09F020E0822F0895A5
:10044000CF93DF931F92CDB7DEB76091340280E087
:1004500090E069830E94401C6981681721F080E068
:1004600090E00E94481C6091350281E090E0698331
:100470000E94401C6981681739F081E090E00F907C
:10048000DF91CF910C94481C0F90DF91CF9108958C
:10049000FC01808191810C94EB1CEF92FF920F93F1
:1004A0001F93CF93DF93EC01198218821B821A826B
:1004B0001D821C8261157105A9F17B01FB01019070
:1004C0000020E9F731978F01061B170BB8016F5F0A
:1004D0007F4F80E090E00E94831D009759F0998340
:1004E00088831B830A832C813D81232B81F4FC01AB
:1004F00010820DC088819981009711F00E94EB1C39
:10050000198218821D821C821B821A820BC01D83D5
:100510000C83B701DF91CF911F910F91FF90EF9066
:100520000C94641EDF91CF911F910F91FF90EF907B
:1005300008951F920F920FB60F9211242F933F939D
:100540004F935F936F937F938F939F93AF93BF93DB
:10055000EF93FF9385E093E00E944B01FF91EF91B1
:10056000BF91AF919F918F917F916F915F914F91CB
:100570003F912F910F900FBE0F901F9018951F92D3
:100580000F920FB60F9211242F938F939F93EF9397
:10059000FF93E0911503F09116038081E0911B0316
:1005A000F0911C0382FD12C0908180911E038F5F29
:1005B0008F7320911F03821751F0E0911E03F0E02A
:1005C000EB5FFC4F958F80931E0301C08081FF91EC
:1005D000EF919F918F912F910F900FBE0F901F90D1
:1005E0001895CF93DF93282F30E0F901E250FF4FA9
:1005F0008491F901E25EFE4FD491F901E45CFE4F73
:10060000C491CC2391F081110E94D501EC2FF0E030
:10061000EE0FFF1FEC50FF4FA591B491EC91ED232D
:1006200081E090E021F480E002C080E090E0DF9182
:10063000CF91089583E00E94F102892B21F481E09B
:1006400080935D02089581E080935E0208951F9378
:10065000CF93DF93282F30E0F901E250FF4F8491D0
:10066000F901E25EFE4FD491F901E45CFE4FC491C2
:10067000CC23C9F0162F81110E94D501EC2FF0E098
:10068000EE0FFF1FEE5CFE4FA591B4918FB7F8946B
:10069000111105C09C91ED2FE095E92302C0EC916A
:1006A000ED2BEC938FBFDF91CF911F910895CF93E6
:1006B000DF9390E0FC01E25EFE4F2491FC01E45CDC
:1006C000FE4F8491882361F190E0880F991FFC010F
:1006D000E651FF4FC591D491FC01EE5CFE4FA59110
:1006E000B491611109C09FB7F89488812095822345
:1006F0008883EC912E230BC0623061F49FB7F8948D
:100700003881822F809583238883EC912E2B2C9324
:100710009FBF06C08FB7F894E8812E2B28838FBF28
:10072000DF91CF9108953FB7F89480917402909132
:100730007502A0917602B091770226B5A89B05C0FC
:100740002F3F19F00196A11DB11D3FBFBA2FA92F50
:10075000982F8827820F911DA11DB11DBC01CD01CD
:1007600042E0660F771F881F991F4A95D1F70895B9
:100770008F929F92AF92BF92CF92DF92EF92FF92B1
:100780006B017C010E9493034B015C01C114D104F5
:10079000E104F104F1F00E949303DC01CB0188191C
:1007A0009909AA09BB09883E9340A105B10570F3D8
:1007B00021E0C21AD108E108F10888EE880E83E032
:1007C000981EA11CB11CC114D104E104F10419F755
:1007D000DDCFFF90EF90DF90CF90BF90AF909F90D4
:1007E0008F9008952FB7F894609170027091710204
:1007F00080917202909173022FBF08951F920F9201
:100800000FB60F9211242F933F938F939F93AF9323
:10081000BF938091700290917102A0917202B09189
:10082000730230916F0223E0230F2D3720F40196DD
:10083000A11DB11D05C026E8230F0296A11DB11D03
:1008400020936F028093700290937102A0937202C2
:10085000B09373028091740290917502A091760218
:10086000B09177020196A11DB11D809374029093FF
:100870007502A0937602B0937702BF91AF919F91DA
:100880008F913F912F910F900FBE0F901F90189551
:100890001F920F920FB60F9211242F933F934F93F5
:1008A0005F936F937F938F939F93AF93BF93EF93D8
:1008B000FF93E0910201F09103010995FF91EF91FF
:1008C000BF91AF919F918F917F916F915F914F9168
:1008D0003F912F910F900FBE0F901F9018951F9270
:1008E0000F920FB60F9211242F933F934F935F9364
:1008F0006F937F938F939F93AF93BF93EF93FF93E8
:10090000E0910001F09101010995FF91EF91BF91F4
:10091000AF919F918F917F916F915F914F913F9197
:100920002F910F900FBE0F901F9018951F93CF938C
:10093000DF93182FEB018EE70E94530A812F0E944C
:10094000530A4C815D816881798185E093E00E9442
:10095000D5008BE30E94530A80EF91E0DF91CF91A5
:100960001F910C94410A0F931F93CF93DF93CDB740
:10097000DEB7C654D1090FB6F894DEBF0FBECDBFA7
:10098000809137028F93809136028F9385EE91E0AC
:100990009F938F938E010F5F1F4F1F930F930E94A2
:1009A0006B1EB801CE018F5B9F4F0E944D02BE01AE
:1009B0006F5B7F4F81E40E949604CE018F5B9F4F57
:1009C0000E9448020F900F900F900F900F900F9081
:1009D000CA5BDF4F0FB6F894DEBF0FBECDBFDF910D
:1009E000CF911F910F9108952F923F924F925F9256
:1009F0006F927F928F929F92AF92BF92CF92DF922F
:100A0000EF92FF920F931F93CF93DF93CDB7DEB793
:100A10002C970FB6F894DEBF0FBECDBF4B015C0123
:100A200029833A834B835C83C70175016401212CC0
:100A3000312C9C01990F440B550B2D833E834F8322
:100A40005887C801110FAA0BBB0B89879A87AB8700
:100A5000BC8789819A81AB81BC81022C04C0B69588
:100A6000A795979587950A94D2F7BC01CD01772772
:100A7000882799270E94CD1A2B013C01D501C4017A
:100A8000022C04C0B695A795979587950A94D2F73E
:100A9000BC01CD017727882799270E94CD1A9B0199
:100AA000AC01C301B2010E94A71E2B013C016D8164
:100AB0007E818F8198850E94CF1A9B01AC01C30172
:100AC000B2010E94141F2B013C0169857A858B8538
:100AD0009C850E94CF1A9B01AC01C301B2010E9408
:100AE0002E1B0E94861FDC01CB01022C04C0880F44
:100AF000991FAA1FBB1F0A94D2F7C80ED91EEA1E5F
:100B0000FB1E98E0290E311CA8E12A16310409F0D9
:100B1000A0CFC701B6012C960FB6F894DEBF0FBE6A
:100B2000CDBFDF91CF911F910F91FF90EF90DF909C
:100B3000CF90BF90AF909F908F907F906F905F907D
:100B40004F903F902F9008958F929F92AF92BF92B7
:100B5000CF92DF92EF92FF920F931F93CF93DF9389
:100B60004A015B01E0905802F090590200915A024C
:100B700010915B020F5F1F4F880F991F880F991FFD
:100B80009C01285B3D4F6901F9012081318142813F
:100B90005381EC01C85CDD4F688179818A819B813A
:100BA0000E94F404688379838A839B83F6018082A0
:100BB0009182A282B382DF91CF911F910F91FF901A
:100BC000EF90DF90CF90BF90AF909F908F9008955F
:100BD0002F923F924F925F926F927F928F929F924D
:100BE000AF92BF92CF92DF92EF92FF920F931F933B
:100BF000CF93DF93CDB7DEB7CB55D1090FB6F894BD
:100C0000DEBF0FBECDBFCE0101967C018E010F5B12
:100C10001F4FD8011C966996BFAFAEAF6997F80118
:100C200038966B96FFAFEEAF6B971801F4E02F0E7E
:100C3000311C85E093E00E943501892B09F415C22F
:100C400085E093E00E9413018E3729F410926E0222
:100C500010926D02EECF4091A2035091A303209118
:100C60006D0230916E028B3309F0F3C1FA01E20F8D
:100C7000F31F1082A090A203B090A303D5012D9181
:100C8000BD01CE018F5A9F4F6C962FAF6C970E947B
:100C90004D026C962FAD6C97293409F4B6C154F40B
:100CA000243409F498C1283409F4D1C0223409F05D
:100CB000CAC1F2C0243509F464C024F42C3409F408
:100CC00005C1C1C1223609F420C12C3609F0BBC1CF
:100CD0006996FFAD6997FF9368962FAD68972F933C
:100CE0006B968FAD6B978F936A969FAD6A979F9324
:100CF0003F922F921F930F938CE192E09F938F93DB
:100D000063968FAD63978F9362968FAD62978F9343
:100D10000E948E1ED8014D915D916D917C9180E075
:100D200090E00E94A40510925B0210925A02F80112
:100D3000448155816681778181E090E00E94A4051D
:100D400010925B0210925A02D80118964D915D9153
:100D50006D917C911B9782E090E00E94A405109217
:100D60005B0210925A02F8014485558566857785A5
:100D700083E090E00E94A40510925B0210925A0258
:100D80005DC163968EAD9FAD6397009729F00E9479
:100D900002192B013C0103C0412C512C320153019B
:100DA0004201B301A201C7010E94560FC7010E9470
:100DB000CB0E0E94F2036093300270933102809355
:100DC00032029093330283EF91E00E94410A77FE52
:100DD00020C08DE20E94530A22273327A90124193B
:100DE00035094609570919A2FE01B1966F01CA01DA
:100DF000B9012AE030E040E050E00E947E25605DCD
:100E0000D6016E936D01211531054105510579F724
:100E100016C019A2FE01B1966F01C501B4012AE006
:100E200030E040E050E00E947E2549015A01605DBB
:100E3000D6016E936D01232B242B252B71F7C60150
:100E40000E94410A80EF91E00E94410AFCC064E0E8
:100E500072E0CE018F5A9F4F0E940102882331F029
:100E600081E08093340287E092E00DC060E172E09F
:100E7000CE018F5A9F4F0E940102882351F0109299
:100E8000340283E192E00E94410A80EF91E00E94E7
:100E9000410A0E942002D7C063968EAD9FAD639732
:100EA000009719F00E94021903C060E070E0CB01C6
:100EB0006830710508F0C7C0683010F4686801C078
:100EC0006FE88FEB93E00E94520EBDC063968EAD2B
:100ED0009FAD6397009719F00E94FE1803C060E071
:100EE00070E0CB010E948D1F4B015C01C12CD12C05
:100EF000B501A401C6010E94A405BFEFCB1ADB0A0D
:100F0000E4E0CE16D104A1F761C0D5011196CC90D2
:100F10000C2C000CDD08B0E3CB1AD108B5016E5FD4
:100F20007F4FC7010E944D0263968EAD9FAD6397C0
:100F30000097C9F069817A816115710591F0659614
:100F40004EAD5FAD65972D813E814217530748F046
:100F50000E94641E8D819E8167969FAF8EAF6797BA
:100F600018C00E94EB1C89819A8163969FAF8EAF57
:100F700063978B819C8165969FAF8EAF65978D81BE
:100F80009E8167969FAF8EAF67971A8219821C82E7
:100F90001B821E821D82C7010E94480263968EAD8D
:100FA0009FAD6397009719F00E94FE1803C060E0A0
:100FB00070E0CB01E4E0CE16D10408F044C00E94FA
:100FC0008D1FAB01BC01C6010E94A40510925B02FB
:100FD00010925A0238C06CE272E0CE018F5A9F4FD5
:100FE0000E940102882321F081E08093350251CFD5
:100FF0006EE272E0CE018F5A9F4F0E940102882359
:1010000009F447CF1092350244CF0E94DC099F9328
:101010008F937F936F93A8E2B2E0BF93AF93FF9259
:10102000EF920E946B1EB701C8010E944D02B801E9
:1010300089E60E949604C8010E9448020FB6F894FF
:10104000DEBF0FBECDBFCE018F5A9F4F0E94480218
:10105000F0CDB9016F5F7F4F70936E0260936D02A8
:10106000FA01E20FF31F8083E4CDC55ADF4F0FB6BC
:10107000F894DEBF0FBECDBFDF91CF911F910F91CE
:10108000FF90EF90DF90CF90BF90AF909F908F90A8
:101090007F906F905F904F903F902F9008950E94A7
:1010A000410181110C94E80508952091F802909176
:1010B000F702213208F04AC08091D4028111FCCF9E
:1010C00032E03093D40231E03093D3023FEF3093DB
:1010D000D2021092D1022093D002A7EDB2E040EBF1
:1010E00052E0FA013E2F341B321718F43D91319330
:1010F000F9CF1092AF022091AF02990F922B9093EB
:10110000AF029091AE02913061F41092AE029091D4
:10111000AF029093BB009091BC0093FDF8CF95EC8B
:1011200001C095EE9093BC009091D4029230E1F30F
:101130009091D2029F3F79F08091D202803241F0AB
:101140008091D202803331F084E005C081E003C099
:1011500082E001C083E01092D6021092F802109251
:10116000D50208959091D4029111FCCF613208F01C
:1011700060E291E09093D4024093D3022FEF20934A
:10118000D2021092D102260F2093D0029093AF0288
:101190009091AF02880F892B8093AF028091AE02AD
:1011A000813061F41092AE028091AF028093BB0057
:1011B0008091BC0083FDF8CF85EC01C085EE809363
:1011C000BC008091D4028130E1F38091D102861776
:1011D00010F46091D102A0EBB2E02EE832E0F90108
:1011E0008E2F821B861718F48D918193F9CF109260
:1011F0008D0260938C02862F089510928D021092BA
:101200008C021092D6021092F8021092D40281E061
:101210008093D3021092AE0261E082E10E94270324
:1012200061E083E10E942703E9EBF0E080818E7F9B
:10123000808380818D7F808388E48093B80085E4FB
:101240008093BC0008950F931F93CF93DF93CDB786
:10125000DEB729970FB6F894DEBF0FBECDBF0E9450
:1012600093030091B2031091B3032091B403309122
:10127000B503DC01CB01801B910BA20BB30B8C32AD
:101280009140A105B10558F3F8948091A80390917D
:10129000A9039A838983E091AC03F091AD03DF0148
:1012A0001196808189879091A403E091B603F09113
:1012B000B7038091B803992309F42EC09081982B2D
:1012C00098879081809589238F838F818C8388E094
:1012D0008B8358856F8149853B812C8189819A81D7
:1012E000508347FD252F3A952083262F39F0441F40
:1012F00000C000006083000000C0F2CF38E04D91D4
:1013000060830000019761F7F093B703E093B603A1
:1013100049873B832C8338C09081982B9887908194
:10132000809589238F838F818E8388E08D83588574
:101330006F8149853D812E8189819A81508347FD46
:10134000252F00C000C0208300C000C000C000C026
:1013500000C060830000262F3A9541F0441F000032
:1013600000C000C000C000C000C0E8CF38E04D9110
:1013700000C0608300C0019709F7F093B703E093C2
:10138000B60349873D832E839A83898378940E948C
:1013900093036093B2037093B3038093B403909369
:1013A000B50329960FB6F894DEBF0FBECDBFDF910F
:1013B000CF911F910F910895EF92FF920F931F937A
:1013C0006091BA033091B903432F50E08091BB0381
:1013D00090E0E2E1F1E021E02E1B722F7E0F761704
:1013E00028F47491870F911D3196F7CF633018F070
:1013F000337009F401966DE671E0469F9001479FB6
:10140000300D569F300D1124215031094D5F5F4F33
:101410005695479556954795240F351F280F391F28
:10142000A8E1B0E00E94311C2091BC037B018C013B
:10143000E20EF11C011D111DA8019701ACE3B0E003
:101440000E94EF1B2091BD037B018C01E20EF11C79
:10145000011D111DA80197010E94EF1B2091BE03E1
:10146000DC01CB01820F911DA11DB11DBC01CD017D
:1014700060587C4B8249974C1F910F91FF90EF90E1
:101480000895009769F0FC0101900020E9F7319779
:10149000AF01481B590BBC0185E093E00C94D500CB
:1014A00080E090E00895E0910503F091060301903B
:1014B000F081E02D682F85E093E009940F931F934E
:1014C000CF93DF931F92CDB7DEB78B019091780257
:1014D00021E02093D5029093F7021092D602109249
:1014E000F802682F89EF92E049830E9456114981E2
:1014F00050E0B80189EF92E00E9426110F90DF9131
:10150000CF911F910F910C945508CF93DF931F92A9
:10151000CDB7DEB7698341E0BE016F5F7F4F0E94A8
:101520005E0A0F90DF91CF91089580917E028F77B0
:1015300008954F925F926F927F928F929F92AF9297
:10154000BF92CF92DF92EF92FF920F931F93CF93B0
:10155000DF935B01542ED0E0C0E0842E912C442414
:101560004394C82ED12CC51508F045C0D11143C0F5
:101570006C2F70E07401E61AF70A81E2E816F104B4
:101580001CF080E2E82EF12C809178024092D50286
:101590008093F7021092D6021092F8026C0D7D1D16
:1015A00089EF92E00E9456110E94550841E06E2D8D
:1015B000809178020E94B20800E010E0FF248C2F96
:1015C000800F0E151F0594F420918C0290918D02CE
:1015D000291771F03501680E711C89EF92E00E94A5
:1015E0000A11F30180830F5F1F4FE9CFC82FBBCFD4
:1015F000C82FD1E0B8CF8C2FDF91CF911F910F91E1
:10160000FF90EF90DF90CF90BF90AF909F908F9022
:101610007F906F905F904F9008958F929F92AF92BE
:10162000BF92CF92DF92EF92FF921F93CF93DF93FF
:10163000CDB7DEB7C150D1400FB6F894DEBF0FBEB4
:10164000CDBF0E94F2034B015C010E94F203DC015A
:10165000CB0188199909AA09BB098A3F9105A105FF
:10166000B10508F0A3C041E0BE016F5F7E4F8FEA75
:101670000E94990ACF5FDE4F9881C150D140292F37
:1016800030E03595279580918B0220FB81F990FB06
:1016900080F980938B0280FF89C06EE170E080E06A
:1016A00090E00E94B80341E0BE016F5F7E4F8EEA7A
:1016B0000E94990ACF5FDE4F4881C150D140BE01E0
:1016C0006F5F7F4F8CEF0E94990A298130E08A81F9
:1016D000281B3109C90137FF04C088279927821BBD
:1016E000930B0E9714F420E030E08B8190E04C8156
:1016F000841B9109AC0197FF04C044275527481B60
:10170000590B4E30510524F021153105F9F005C073
:1017100021153105D9F180E090E037FF0AC0209112
:101720007B02211145C020917A022F5F20937A021B
:1017300009C020917A0221114EC020917B022F5FB7
:1017400020937B0210E0009721F447C00097F1F04E
:1017500010E097FF0AC080917D02811110C0809136
:101760007C028F5F80937C020BC080917C02811190
:1017700030C080917D028F5F80937D0201C013E0B5
:101780000E94F2036B017C01111117C00E94F20349
:10179000DC01CB018C199D09AE09BF098D32914046
:1017A000A105B10508F451CF10E007C080E01AC0D0
:1017B00011E0009771F60E94F203109279021092E4
:1017C0007A0210927B0210927C0210927D02812F8D
:1017D00009C014E0D5CF12E0ECCF0E94F2036B01F8
:1017E0007C01D4CFCF5FDE4F0FB6F894DEBF0FBEC3
:1017F000CDBFDF91CF911F91FF90EF90DF90CF9001
:10180000BF90AF909F908F9008953F924F925F92BC
:101810006F927F928F929F92AF92BF92CF92DF9200
:10182000EF92FF920F931F93CF93DF937C016B0195
:101830004A01322EDB011496AD90BC901597C0E0A2
:10184000D0E0422E512C66246394712CF7018281E2
:1018500090E09C0124193509C217D307C4F5CA15B5
:10186000DB05ACF5D701ED91FC910088F189E02D05
:101870008C1B9D0B0197930102C0220F331F8A9589
:10188000E2F7C9018821992121E0892B09F420E0A0
:10189000D60114968D919C911597C817D90748F4D5
:1018A0008D919C91009729F0DC01AC0FBD1F8C91AC
:1018B00001C080E0D801A80FB11D87FDBA959097AF
:1018C0006C2F630D4C91C70109952196BFCFDF9115
:1018D000CF911F910F91FF90EF90DF90CF90BF902D
:1018E000AF909F908F907F906F905F904F903F90C0
:1018F00008955F926F927F928F929F92AF92BF9264
:10190000CF92DF92EF92FF920F931F93CF93DF93CB
:101910006C014A01522E7B01C0E0D0E0A22EB12C16
:1019200066246394712CD60112968C9190E09C01F0
:101930002A193B09C217D30744F5D7013D917D0110
:10194000332319F1D601ED91FC918C1B9D0B01976E
:10195000A30102C0440F551F8A95E2F7CA018821EE
:10196000992121E0892B09F420E0D801A30FB11DB2
:1019700037FDBA9590976C2F650D0088F189E02DA1
:101980004C91C60109952196CECFDF91CF911F9141
:101990000F91FF90EF90DF90CF90BF90AF909F900E
:1019A0008F907F906F905F9008950F931F93CF93C8
:1019B000DF938C01C0E0D0E0F801228130E0C21753
:1019C000D3076CF4D801ED91FC916C2F660F04885D
:1019D000F589E02D40E0C80109952196EDCFDF9112
:1019E000CF911F910F910895CF92DF92EF92FF92C6
:1019F0001F93CF93DF936C017B01E40EF51EC62F7E
:101A0000D72F162F1095CE15DF0569F04991D60115
:101A1000ED91FC916C2F610F0088F189E02D20E0A1
:101A2000C6010995F0CFDF91CF911F91FF90EF9004
:101A3000DF90CF900895242FDC01ED91FC91008878
:101A4000F189E02D40E009940F931F93CF93DF932A
:101A5000EC01E881F9810084F185E02D48E050E057
:101A600069ED71E0099508E010E08A8190E00817BF
:101A7000190764F4E881F9810680F781E02D40E0E0
:101A8000602FCE0109950F5F1F4FEFCFDF91CF91F0
:101A90001F910F9108950F931F93342FDC01ED9147
:101AA000FC91D801A60FB11D0088F189E02D4C9161
:101AB000632F1F910F910994EF92FF921F93CF9381
:101AC000DF931F92CDB7DEB77C01162FDC01ED91BD
:101AD000FC910288F389E02D60E049830995D701E4
:101AE000ED91FC910288F389E02D4981111102C02A
:101AF00060E801C068E8483008F047E0642BC7019F
:101B00000F90DF91CF911F91FF90EF9009940F9369
:101B10001F93CF93DF938C01211102C0C0E001C05D
:101B2000C0E8C42BD62FDD0FD801ED91FC914C2FCE
:101B30004F710488F589E02D6D2FC8010995D801F2
:101B4000ED91FC91C07E4C2F50E0559547955595F1
:101B5000479561E06D0F0488F589E02DC801DF919C
:101B6000CF911F910F910994EF92FF921F93CF9302
:101B7000DF931F92CDB7DEB77C01162FDC01ED910C
:101B8000FC910288F389E02D60E049830995D70133
:101B9000ED91FC910288F389E02D4981111102C079
:101BA00060E801C068E8483008F047E0642BC701EE
:101BB0000F90DF91CF911F91FF90EF90099485EDE9
:101BC0008093BC008091BC0084FDFCCF1092D402B5
:101BD00008950895E0918D0280918C02E81730F409
:101BE000F0E0E257FD4F808190E008958FEF9FEF86
:101BF0000895FF920F931F93CF93DF938C01F62EDE
:101C0000C8E0D0E060E0F80184810E9427036F2DD6
:101C10006170F80183810E942703F69461E0F80166
:101C200084810E942703219769F7DF91CF911F914B
:101C30000F91FF900895EF92FF921F93CF93DF9340
:101C40001F92CDB7DEB77C01162FDC01ED91FC9120
:101C50000288F389E02D64E44983099560E0F70187
:101C600085810E942703D701ED91FC91612F606C63
:101C70000688F789E02DC7010995D701ED91FC9100
:101C80000688F789E02D4981642FC701099561E035
:101C9000F70185810F90DF91CF911F91FF90EF9019
:101CA0000C9427031F93CF93DF93EC01162F60E072
:101CB0008D810E942703E881F9810688F789E02D4C
:101CC000612FCE01099561E08D81DF91CF911F9148
:101CD0000C942703CF92DF92EF92FF921F93CF9342
:101CE000DF93EC0160E08B810E94570361E08B8100
:101CF0000E94270398E0C92ED12C10E0E12EF12C90
:101D0000F594E7941E2D60E08C810E9427038B815F
:101D10000E94F102892B09F0106861E08C810E9419
:101D2000270381E0C81AD10849F761E08B810E943E
:101D3000570360E08B810E942703812FDF91CF91B1
:101D40001F91FF90EF90DF90CF900895CF93C62F13
:101D500091E09093D5029CE29093F7021092D60204
:101D60001092F802682F89EF92E00E9456116C2FB2
:101D700089EF92E00E945611CF910C945508CF93B1
:101D8000C82F6AE080610E94A60E6AE08C2F8062F4
:101D9000CF910C94A60E0F931F93CF938C0181E0EB
:101DA0008093D50288E68093F7021092D6021092B3
:101DB000F80260E089EF92E00E945611F801258157
:101DC000CAE0822F6C2F0E944A25682F660F860F6B
:101DD000682F660F620F89EF92E00E945611F8019A
:101DE0002481822F6C2F0E944A25682F660F860F50
:101DF000682F660F620F89EF92E00E945611F8017A
:101E00002381822F6C2F0E944A25682F660F860F30
:101E1000682F660F620F89EF92E00E94561160E012
:101E200089EF92E00E945611F8012281822F6C2FD7
:101E30000E944A25682F660F860F682F660F620F73
:101E400089EF92E00E945611F8012181822F6C2FB8
:101E50000E944A25682F660F860F682F660F620F53
:101E600089EF92E00E945611F8012081822F6C2F99
:101E70000E944A25682F660F860F682F660F620F33
:101E800089EF92E00E945611CF911F910F910C940F
:101E90005508FC01908190539A3008F090E08181C0
:101EA00080532AE0929F800D11240895CF92DF92F3
:101EB000EF92FF92CF93DF93EC01CB01BA01605810
:101EC00073448D4698432CE3C22ED12CE12CF12C87
:101ED000A70196010E947E256D83CA01B901A70161
:101EE00096010E947E256C83CA01B90128E130E089
:101EF00040E050E00E947E256B83188263E97EEF0C
:101F00008881482F437091E009F090E0492F50E01C
:101F1000FA01E359FE4F2E173F0740F0FB01E41B87
:101F2000F50B2E0F3F1F8F5F8883EACF81E08983F7
:101F30008981E82FF0E0EF5EFE4FE491992319F0DC
:101F4000823009F4EF5FF0E02E173F0720F02E1BE0
:101F50003F0B8F5FECCF2F5F2A83DF91CF91FF90F4
:101F6000EF90DF90CF9008951F920F920FB60F92CF
:101F700011242F933F934F935F936F937F938F938E
:101F80009F93AF93BF93EF93FF938091B900887FA6
:101F9000803609F49CC068F5883209F45BC090F47F
:101FA000803109F454C038F4882309F4F6C088302D
:101FB00009F44DC0F6C0883109F44CC0803209F4F0
:101FC0005DC0EFC0803409F468C048F4803309F480
:101FD00055C0883309F0E5C08093D202D8C080355F
:101FE00009F44FC0883509F45DC0883409F0D9C0C0
:101FF000D6C0883909F4C7C0A8F4883709F467C087
:1020000038F4883609F463C0803709F460C0C9C069
:10201000883809F4B8C0803909F45FC0803809F005
:10202000C0C05BC0803B09F486C038F4803A09F434
:1020300066C0883A09F47FC0B4C0803C09F4A7C0E8
:10204000883C09F4A4C0883B09F48AC0AAC08091E6
:10205000AF0210C09091D1028091D002981770F514
:10206000E091D10281E08E0F8093D102F0E0E05543
:10207000FD4F80818093BB0085EC86C08093D202A7
:102080008EC0E091D10281E08E0F8093D1028091C9
:10209000BB00F0E0E055FD4F80839091D10280912C
:1020A000D0026EC0E091D10281E08E0F8093D10208
:1020B0008091BB00F0E0E055FD4F80838091D3021A
:1020C00081116DC081E08093AE0284EA61C083E03B
:1020D0008093D40210920B04CFCF80910B048032F6
:1020E00008F051C0E0910B0481E08E0F80930B0447
:1020F0008091BB00F0E0E551FC4F8083BDCF85ECC3
:102100008093BC001092D40280910B04803230F492
:10211000E0910B04F0E0E551FC4F108260910B045C
:1021200070E0E091E903F091EA038BEE93E009950A
:1021300010920B0436C084E08093D4021092E8031E
:102140001092E703E091E503F091E6030995809191
:10215000E703811105C081E08093E7031092C50376
:10216000E091E80381E08E0F8093E803F0E0EB5309
:10217000FC4F80818093BB009091E8038091E7033E
:10218000981708F479CF85E88093BC000AC085ECE5
:102190008093BC001092D40204C01092D2020E941C
:1021A000DF0DFF91EF91BF91AF919F918F917F9143
:1021B0006F915F914F913F912F910F900FBE0F90B4
:1021C0001F9018954091E703262F30E0240F311D12
:1021D00021323105DCF42091D4022430C9F4FC0111
:1021E00080E090E0861758F43091E7032191DC01FC
:1021F000AB53BC4FA30FB11D2C930196F3CF80912D
:10220000E703680F6093E70380E0089581E0089595
:1022100082E0089590918D0280918C02981750F47D
:10222000E92FF0E0E257FD4F208130E09F5F90936F
:102230008D0202C02FEF3FEFC901089580918C02FB
:1022400090E020918D02821B91090895CF92DF9238
:10225000EF92FF920F931F93CF93DF937C01262F72
:10226000972F8A018091D502882391F0C62FD72F0E
:102270006E01C40ED51ECC15DD0571F06991D70134
:10228000ED91FC910190F081E02DC7010995F3CF0C
:10229000642F822F0E94E210C801DF91CF911F911D
:1022A0000F91FF90EF90DF90CF900895CF93DF9341
:1022B0001F92CDB7DEB769832091D5022223D1F0DA
:1022C0002091F802203240F021E030E0FC0133831D
:1022D000228380E090E015C08091D602E82FF0E0E4
:1022E000E952FD4F998190838F5F8093D60280934E
:1022F000F80205C061E0CE0101960E94E21081E083
:1023000090E00F90DF91CF910895CF93DF93CDB7F9
:10231000DEB7C455D1090FB6F894DEBF0FBECDBFEE
:10232000789484B5826084BD84B5816084BD85B5B0
:10233000826085BD85B5816085BD80916E008160BC
:1023400080936E0010928100809181008260809362
:102350008100809181008160809381008091800064
:102360008160809380008091B10084608093B1008F
:102370008091B00081608093B00080917A00846089
:1023800080937A0080917A00826080937A008091B5
:102390007A00816080937A0080917A0080688093CF
:1023A0007A001092C100E0911503F091160382E0CB
:1023B0008083E0911103F09112031082E0911303E6
:1023C000F09114038FEC808310921D03E0911903A8
:1023D000F0911A0386E08083E0911703F0911803CF
:1023E000808180618083E0911703F09118038081E0
:1023F00088608083E0911703F091180380818068E2
:102400008083E0911703F091180380818F7D808392
:102410001092640210926502109266021092670296
:102420008FE090E0A0E0B0E08093600290936102C2
:10243000A0936202B09363021092690210926A0242
:1024400010926B0210926C021092680280E090E091
:102450000E94401C8093340281E090E00E94401C66
:102460008093350280E190E090935B0280935A0262
:1024700090935902809358028091AA0387FD08C067
:1024800061E00E94570360E08091AA030E94270345
:1024900081E08093A5036091AB03613121F120912C
:1024A000AC033091AD03615031F070E08FEF90E1FB
:1024B0000E94562502C060E070E0F9014091A80337
:1024C0005091A903CF01821B930B8417950740F409
:1024D0004081469FC001479F900D11249193EECFFC
:1024E00081E18093AB038091AC039091AD03892B84
:1024F00011F00E9423096CE271E080E090E00E94FC
:10250000B8030E94FD0864E085E00E94A60E80E00A
:102510000E94BF0E81E00E94BF0E82E00E94BF0EAB
:1025200083E00E94BF0E60E082E00E94570360E0FB
:1025300083E00E9457030E94FD0881E08093D5024A
:1025400088E68093F7021092D6021092F80260E0BB
:1025500089EF92E00E9456110E94550841E061E027
:1025600088E60E94B20889EF92E00E940A1187FF74
:102570006EC04BE050E06EED70E0CE0101960E941F
:102580002C19CE010A960E94490F22968FAF2297EE
:10259000E9818E2FEE0F990BAA0BBB0BFC01E154C6
:1025A000F109E331F10550F5EC5CFF4F0C94A025E7
:1025B0008A81813639F08B818E3611F087E01BC01D
:1025C00086E019C081E017C082E015C08B81823798
:1025D00011F088E010C084E00EC08B81823711F0CA
:1025E00085E009C083E007C089E005C08AE003C038
:1025F0008BE001C08CE023968FAF2397CE01059628
:102600000E94490F24968FAF249748E050E065ED73
:1026100070E0CE0101960E942C19CE0101960E9415
:10262000490F25968FAF2597CE0104960E94490F3A
:1026300026968FAF2697CE0107960E94490F2796C0
:102640008FAF2797CE018F5B9F4F0E94CB0E81E00B
:1026500080935F0241E061E08FEB93E00E94B40D54
:102660000E94FD0889E38093780241E0BE016F5F1C
:102670007F4F82E90E94990A89818B3A09F0C9C08B
:102680006CEF81E80E94850A609182026C7F616034
:1026900060938202862F82958F70982F937020E42A
:1026A000929FC00111246C70682B61608FE80E94BA
:1026B000850A60918A026E7F60938A0266956370D4
:1026C00070E0660F771F8BEA0E94850A80917E0278
:1026D0008F7B80937E020E94950A682F80E80E947B
:1026E000850A1092790210927A0210927B0210925F
:1026F0007C0210927D0280917E028B7F80937E020D
:102700000E94950A682F80E80E94850A80917E02C7
:102710008D7F80937E020E94950A682F80E80E9438
:10272000850A80917E028F7E80937E020E94950AA8
:10273000682F80E80E94850A80917E028F7D8093B9
:102740007E020E94950A682F80E80E94850A40E078
:1027500060E070E087EE0E945E0A80917E028E7FCC
:1027600080937E020E94950A682F80E80E94850A65
:102770006AE070E080E090E00E94B80380917E0201
:10278000816080937E020E94950A682F80E80E94F3
:10279000850A6AE070E080E090E00E94B8038091D2
:1027A0008902817E846081608093890262E28AEA84
:1027B0000E94850A609186026F736064609386024E
:1027C0006F73606482EA0E94850A609187026F7964
:1027D0006064609387026F71606483EA0E94850A77
:1027E00062E380EA0E94850A60E081EA0E94850A2D
:1027F0001092790210927A0210927B0210927C025F
:1028000010927D0289EC8093880269EC86EA0E942E
:10281000850A80917E02846080937E020E94950AE0
:10282000682F80E80E94850A60918A026160609347
:102830008A02667061608BEA0E94850A80917E023E
:10284000806480937E020E94950A682F80E80E942F
:10285000850A1092790210927A0210927B021092ED
:102860007C0210927D02809183028C7F8093830290
:1028700083FBEE24E0F8F12CB7017695762F6627DE
:102880007795679582FB002700F910E086E0000F3E
:10289000111F8A95E1F7062B602F616080E90E9485
:1028A000850A609182026063609382026F70606C3F
:1028B0008FE80E94850A8AE193E090930301809358
:1028C000020180916900837F846080936900E99AA6
:1028D000442443949AEF592E2AE0822E912C3EEF05
:1028E000232E31E0332E4092D50238E63093F702A2
:1028F0001092D6021092F80260E089EF92E00E94F6
:1029000056110E94550841E067E088E60E94B2082F
:1029100089EF92E00E940A118F77982F92959F700D
:10292000182F959D100D112489EF92E00E940A1135
:102930009C01332744E0359527954A95E1F7382FD8
:10294000529E300D112489EF92E061963FAF61975E
:102950000E940A11BC01772754E0759567955A9536
:10296000E1F7482F569E400D112489EF92E06096C2
:102970004FAF60970E940A1189EF92E00E940A11FE
:10298000BC017727E4E075956795EA95E1F7082F94
:10299000569E000D112489EF92E00E940A11BC019D
:1029A0007727F4E075956795FA95E1F7F82E569E2E
:1029B000F00C112489EF92E00E940A11BC017727E4
:1029C000A4E075956795AA95E1F7569E800D1124B0
:1029D0008093B903F092BA030093BB0360964FADA6
:1029E00060974093BC0361963FAD61973093BD0300
:1029F0001093BE03493118F43D3308F453C20AE181
:102A000011E020E043E06FE48FEB93E00E944B0D78
:102A100020E042E06FE48FEB93E00E944B0D20E05A
:102A200041E062E48FEB93E00E944B0D20E040E038
:102A30006FE48FEB93E00E944B0D0E94F203009134
:102A40003002109131022091320230913302DC01C8
:102A5000CB01801B910BA20BB30B843F9140A105CE
:102A6000B10578F080915F02842580935F020E9417
:102A7000F20360933002709331028093320290939C
:102A8000330280915D02813029F080915E028130B5
:102A900009F07CC0E99830920301209202018091F4
:102AA0005D028130D9F40E94F20360936902709351
:102AB0006A0280936B0290936C0241E062E08CE2C8
:102AC0000E94B20810E090918C0280918D029813C0
:102AD00063C289818093680210925D0280915E02D8
:102AE000813009F046C00E94F20300916902109102
:102AF0006A0220916B0230916C02DC01CB01801BD9
:102B0000910BA20BB30BBF93AF939F938F938091C5
:102B100068021F928F93A1EEB1E0BF93AF9301E0E3
:102B200010E00C0F1D1F1F930F930E946B1EB80126
:102B3000CE018F5B9F4F0E944D02BE016F5B7F4FA6
:102B400084E70E949604CE018F5B9F4F0E9448024B
:102B50001092690210926A0210926B0210926C023B
:102B60001092680210925E020FB6F894DEBF0FBE9C
:102B7000CDBF4AE153E0509303014093020180919D
:102B80006900837F846080936900E99A0E940D0B3D
:102B9000823069F028F48130E9F468EE71E00CC00D
:102BA000833041F08430B1F46EEE71E005C06AEE1E
:102BB00071E002C06CEE71E0CE0101960E944D0200
:102BC000BE016F5F7F4F87E40E949604CE0101969D
:102BD0000E94480220915A0230915B028091580273
:102BE00090915902281739074CF10E94DC09009195
:102BF0006402109165022091660230916702DC0147
:102C0000CB01801B910BA20BB30B009160021091C2
:102C10006102209162023091630280179107A2073E
:102C2000B30708F43CC10E94B30486E480937C009F
:102C300080917A00806480937A00F8C088E492E002
:102C40002B969FAF8EAF2B97A8E3B2E02996BFAF2C
:102C5000AEAF2997A12CB12C612C712CC12CD12C99
:102C60002B96EEADFFAD2B97219131914191519172
:102C70002B96FFAFEEAF2B972996AEADBFAD299740
:102C80006D917D918D919D912996BFAFAEAF2997A2
:102C9000E0905802F090590200915A0210915B02A4
:102CA0000F5F1F4F0E94F4042091A6033091A703E9
:102CB000C216D30608F052C08C012227332765962E
:102CC0000CAF1DAF2EAF3FAF65976296FFAD629719
:102CD000E72EF82E092F1127EE2D562F4091AB032A
:102CE000442361F0F49F90011124F32FE49E7001BE
:102CF0001124EF2D649F90011124532FA091B10353
:102D0000B091AE032091AC033091AD03AB1303C07F
:102D10002A0D3B1D11C0260D371D692F77278827E7
:102D2000992789010A0F111DD801442321F0649FBE
:102D3000B0011124672F6C938091AE03D901A80FC5
:102D4000B11DFC938091AF03D901A80FB11DEC9385
:102D50008091B003F901E80FF11D50831FEFC11AF4
:102D6000D10A24E0620E711C33E0A30EB11C44E0D2
:102D7000C416D10409F074CF8091AC039091AD03D7
:102D8000892B11F00E94230980915A0290915B02D5
:102D9000019690935B0280935A02209158023091E1
:102DA0005902821793070CF420CF8091480290912A
:102DB0004902A0914A02B0914B028093380290934D
:102DC0003902A0933A02B0933B0280914C02909159
:102DD0004D02A0914E02B0914F0280933C0290931D
:102DE0003D02A0933E02B0933F0280915002909129
:102DF0005102A0915202B0915302809340029093ED
:102E00004102A0934202B0934302809154029091F8
:102E10005502A0915602B0915702809344029093BC
:102E20004502A0934602B0934702DFCE80917A001C
:102E300086FDFCCF809178002091790090E0922B64
:102E40009F938F93A5EEB1E0BF93AF9301E010E0A5
:102E50000C0F1D1F1F930F930E946B1EB801CE0114
:102E60008F5B9F4F0E944D02BE016F5B7F4F86E5D7
:102E70000E949604CE018F5B9F4F0E9448020E94E1
:102E8000DC096093640270936502809366029093FC
:102E900067020F900F900F900F900F900F900E946D
:102EA0004F0821CD463018F021E0423108F020E0F3
:102EB0008091350270903402032F10E0E42EF12C43
:102EC000772061F04D3020F04CE0E41AF10806C0A4
:102ED000E114F10419F49CE0E92EF12C882319F097
:102EE0006624639402C020E0612C3A3080F0C8016F
:102EF000B4010E946A255B0136EF3603F001379F6B
:102F0000F00D1124E00FF11FEF70FF2704C03F7098
:102F1000E32FA12CB12C5AE0E516F1048CF0C70187
:102F2000B4010E946A256B0136EF3603C001379F5A
:102F3000900D1124E80EF91E8FE0E822FF2402C054
:102F4000C12CD12C0AE011E043E06E2F8FEB93E00F
:102F50000E944B0D262D42E06A2D8FEB93E00E94DC
:102F60004B0D20915F0241E06E2D8FEB93E00E94AC
:102F70004B0D772019F0C114D10439F00AE011E0AB
:102F800020915F0240E06C2D54CD0AE111E02091C8
:102F90005F0240E060E04DCD89EF92E0123058F4DE
:102FA0000E940A11E1E0F0E0EC0FFD1FE10FF11DBE
:102FB00080831F5F88CD0E940A1185CD8091AC036C
:102FC0009091AD03009711F00E94EB1C8091AA0331
:102FD00087FD03C060E00C9457030895CF93DF93FF
:102FE0001092FC021092FB0288EE93E0A0E0B0E0A9
:102FF0008093FD029093FE02A093FF02B093000322
:103000002DE731E03093FA022093F9021092080381
:10301000109207038093090390930A03A0930B0374
:10302000B0930C038FE891E090930603809305031F
:1030300085EC90E0909312038093110384EC90E070
:10304000909314038093130380EC90E09093160305
:103050008093150381EC90E09093180380931703FD
:1030600082EC90E090931A038093190386EC90E031
:1030700090931C0380931B0310921E0310921F0356
:10308000109220031092210381EA91E09093C003F3
:103090008093BF038EE08093C20380E18093C303DB
:1030A0008FE08093C40388E08093C10361E08EE0E9
:1030B0000E94570361E080E10E94570361E08FE0C6
:1030C0000E94570361E08FE00E94270361E080E1E6
:1030D0000E94270360E48FEB93E00E94520E6FE89A
:1030E0008FEB93E00E94520E60E08FE00E94270376
:1030F00060EC8FEB93E00E94F90DC0E1D0E060E05E
:103100008FEB93E00E94F90D2197C9F761E08FE002
:103110000E9427038FEB91E09093C0038093BF033D
:1031200040E050E0BA0189EB93E00E94560F109204
:10313000A5031092AB031092B2031092B303109246
:10314000B4031092B50381E08093B1038093AE0382
:103150001092AF0392E09093B0038093A4038CE0AD
:1031600090E09093A9038093A8030E94561C90932B
:10317000AD038093AC03009761F02CE0FC01119249
:103180002A95E9F784E090E09093A7038093A60343
:1031900008C01092A9031092A8031092A7031092DE
:1031A000A60381E18093AA038091A503882341F0BF
:1031B00061E081E10E94570360E081E10E94270302
:1031C000EDE4F1E0E491F0E0EE0FFF1FEE5CFE4F66
:1031D000859194919093B7038093B603EFE2F1E069
:1031E000E491E093B80380E490E00E94561C909331
:1031F000A3038093A203DF91CF91089566277727D9
:103200000C944A191F93FC0199278827BC01E89464
:1032100011911032E9F3193010F01E30C8F31B324F
:1032200051F01D3249F4689406C00E943519610FAF
:10323000711D811D911D119110531A30B0F33EF490
:1032400090958095709561957F4F8F4F9F4F1F91FF
:103250000895F8940C94A625FB01DC0102C00590AA
:103260000D9241505040D8F70895592F482F372FCD
:10327000262F660F771F881F991F660F771F881FDD
:10328000991F620F731F841F951F660F771F881F7A
:10329000991F0895A0E0B0E0E0E5F9E10C94FE1B71
:1032A000EC017B016115710519F0DB018D939C9395
:1032B0008E010F5F1F4F7880872D90E00E94A71A24
:1032C000892B11F0E801F4CFBDE27B1205C00F5F3E
:1032D0001F4F7980C1E008C0EBE27E1204C08E016E
:1032E0000E5F1F4F7980C0E06801F1E0CF1AD1086E
:1032F00043E050E066E970E0C6010E94B01A892BF5
:10330000F1F4680122E0C20ED11C45E050E061E911
:1033100070E0C6010E94B01A892B21F4680187E091
:10332000C80ED11CE114F10419F0D701CD92DC9242
:10333000C111FFC060E070E080E89FE703C143E097
:1033400050E06EE870E0C6010E94B01A892B51F47B
:10335000E114F10409F4F2C00E5F1F4FF70111836D
:103360000083ECC0680160E070E0CB0100E010E099
:10337000F601D0EDD70DDA3058F52C2F2260622EF1
:103380002C2F2870C2FF05C0211128C00F5F1F4FCE
:1033900025C0222311F001501109A5E0B0E09B01E6
:1033A000AC010E94EF1B4B015C01880C991CAA1C0C
:1033B000BB1CC501B4016D0F711D811D911D6839C4
:1033C000A9E97A078A07A9E19A0740F0C66005C013
:1033D000DE3F51F4C3FD44C0C8606C2EBFEFCB1A72
:1033E000DB0A7080C62DC4CF2D2F2F7D2531C1F56E
:1033F00040814D3211F4C06106C04B3221F031964C
:1034000021E030E006C03296D60111964C9122E0C0
:1034100030E0A0EDA40FAA3018F0E21BF30B20C09F
:1034200040E050E04038BCE05B075CF49A01220FBA
:10343000331F220F331F420F531F440F551F4A0FD4
:10344000511D3196DF0111972C91A0EDA20FAA30EA
:1034500048F3C4FF03C0519541955109040F151F4E
:10346000C1FF07C0E114F10421F03197D701ED93BA
:10347000FC930E94CD1AC370C33019F06B017C011C
:1034800006C06B017C01F7FAF094F7F8F09420E0A5
:1034900030E0A901C701B6010E94C81A882309F4C7
:1034A00045C017FF06C0119501951109CDEAD0E07E
:1034B00002C0C5ECD0E05E01B8E1AB1AB10846012C
:1034C000BE2DAF2D90E2E92EF12C0E151F0584F0D4
:1034D000FE012591359145915491B4018B2F9A2F7E
:1034E0000E942E1B4B01B82FA92F0E191F09EDCFDB
:1034F0002497F594E794CA15DB0539F76401EB2EA0
:10350000FA2E8E2D880F8F2D881F8F3F49F020E0D7
:1035100030E0A901C701B6010E94C81A811106C096
:1035200082E290E090930D0480930C04C701B601F1
:1035300009C060E070E080E89FEF04C060E070E0E8
:1035400080EC9FE7CDB7DEB7EEE00C941A1C91112A
:103550000C949B1B803219F089508550C8F7089550
:10356000FB01DC014150504088F08D9181341CF00A
:103570008B350CF4805E659161341CF06B350CF476
:10358000605E861B611171F3990B0895881BFCCF57
:103590000E940A1B08F481E00895E89409C097FB93
:1035A0003EF490958095709561957F4F8F4F9F4F1A
:1035B0009923A9F0F92F96E9BB279395F69587955E
:1035C00077956795B795F111F8CFFAF4BB0F11F421
:1035D00060FF1BC06F5F7F4F8F4F9F4F16C08823C8
:1035E00011F096E911C0772321F09EE8872F762FFE
:1035F00005C0662371F096E8862F70E060E02AF03F
:103600009A95660F771F881FDAF7880F969587952A
:1036100097F90895990F0008550FAA0BE0E8FEEFFF
:1036200016161706E807F907C0F012161306E40786
:10363000F50798F0621B730B840B950B39F40A267F
:1036400061F0232B242B252B21F408950A2609F45D
:10365000A140A6958FEF811D811D08950E94411BF9
:103660000C94B51B0E94A71B38F00E94AE1B20F0E3
:10367000952311F00C949E1B0C94A41B11240C9404
:10368000E91B0E94C61B70F3959FC1F3950F50E094
:10369000551F629FF001729FBB27F00DB11D639F04
:1036A000AA27F00DB11DAA1F649F6627B00DA11DAA
:1036B000661F829F2227B00DA11D621F739FB00D50
:1036C000A11D621F839FA00D611D221F749F3327C0
:1036D000A00D611D231F849F600D211D822F762F59
:1036E0006A2F11249F5750409AF0F1F088234AF036
:1036F000EE0FFF1FBB1F661F771F881F91505040A2
:10370000A9F79E3F510580F00C949E1B0C94E91B79
:103710005F3FE4F3983ED4F3869577956795B79528
:10372000F795E7959F5FC1F7FE2B880F911D969542
:10373000879597F9089599278827089597F99F679E
:1037400080E870E060E008959FEF80EC0895002429
:103750000A941616170618060906089500240A94F6
:1037600012161306140605060895092E0394000C7C
:1037700011F4882352F0BB0F40F4BF2B11F460FF0B
:1037800004C06F5F7F4F8F4F9F4F089557FD905834
:10379000440F551F59F05F3F71F04795880F97FB15
:1037A000991F61F09F3F79F08795089512161306CF
:1037B0001406551FF2CF4695F1DF08C016161706FE
:1037C0001806991FF1CF8695710561050894089533
:1037D000E894BB2766277727CB0197F908950E94C5
:1037E000311CA59F900DB49F900DA49F800D911D3D
:1037F000112408952F923F924F925F926F927F9281
:103800008F929F92AF92BF92CF92DF92EF92FF92F0
:103810000F931F93CF93DF93CDB7DEB7CA1BDB0B9C
:103820000FB6F894DEBF0FBECDBF09942A88398841
:1038300048885F846E847D848C849B84AA84B98448
:10384000C884DF80EE80FD800C811B81AA81B98154
:10385000CE0FD11D0FB6F894DEBF0FBECDBFED0168
:103860000895A29FB001B39FC001A39F700D811D59
:103870001124911DB29F700D811D1124911D089579
:10388000F999FECF92BD81BDF89A992780B5089528
:10389000262FF999FECF1FBA92BD81BD20BD0FB66C
:1038A000F894FA9AF99A0FBE01960895CF93DF9390
:1038B0008230910510F482E090E0E0911004F091E4
:1038C000110420E030E0C0E0D0E0309711F14081F9
:1038D000518148175907C0F04817590761F4828190
:1038E0009381209719F09B838A832BC090931104B6
:1038F0008093100426C02115310519F04217530793
:1039000018F49A01BE01DF01EF010280F381E02D7E
:10391000DCCF2115310509F1281B390B2430310585
:1039200090F412968D919C9113976115710521F079
:10393000FB019383828304C090931104809310044D
:10394000FD01329644C0FD01E20FF31F8193919374
:10395000225031092D933C933AC020910E043091AE
:103960000F04232B41F4209106013091070130937D
:103970000F0420930E0420910401309105012115BC
:10398000310541F42DB73EB740910801509109012E
:10399000241B350BE0910E04F0910F04E217F3079E
:1039A000A0F42E1B3F0B2817390778F0AC014E5FAF
:1039B0005F4F2417350748F04E0F5F1F50930F04D9
:1039C00040930E048193919302C0E0E0F0E0CF01B8
:1039D000DF91CF9108950F931F93CF93DF930097BB
:1039E00009F48CC0FC0132971382128200911004FA
:1039F000109111040115110581F420813181820F8C
:103A0000931F20910E0430910F042817390779F580
:103A1000F0930F04E0930E0471C0D80140E050E031
:103A2000AE17BF0750F412962D913C911397AD013C
:103A30002115310509F1D901F3CF9D01DA01338355
:103A4000228360817181860F971F8217930769F423
:103A5000EC0128813981260F371F2E5F3F4F3183BC
:103A600020838A819B8193838283452B29F4F09361
:103A70001104E093100442C01396FC93EE93129746
:103A8000ED01499159919E01240F351FE217F3076B
:103A900071F480819181840F951F029611969C93F9
:103AA0008E938281938113969C938E931297E0E07C
:103AB000F0E0D80112968D919C911397009719F020
:103AC000F8018C01F6CF8D919C9198012E5F3F4FAC
:103AD000820F931F20910E0430910F04281739078D
:103AE00069F4309729F4109211041092100402C066
:103AF0001382128210930F0400930E04DF91CF9172
:103B00001F910F910895A0E0B0E0E9E8FDE10C9469
:103B1000FE1BEC01009721F4CB010E94561CB8C09B
:103B2000FC01E60FF71F9C0122503109E217F30751
:103B300008F4ACC0D9010D911C9111970617170715
:103B4000B0F00530110508F49FC0C801049786172E
:103B5000970708F499C002501109061B170B01932F
:103B600011936D937C93CF010E94EB1C8DC05B0180
:103B7000A01AB10A4C01800E911EA0911004B091C0
:103B8000110440E050E0E12CF12C109709F44AC0F8
:103B9000A815B905D1F56D907C901197630182E06D
:103BA000C80ED11CCA14DB0480F1A3014A195B09B9
:103BB0006A0182E0C80ED11C1296BC90129713962F
:103BC000AC91B5E0CB16D10440F0B282A38351830F
:103BD0004083D9016D937C930AC00E5F1F4FC301D0
:103BE000800F911FF90191838083EB2DFA2FE1144F
:103BF000F10431F0D7011396FC93EE93129744C071
:103C0000F0931104E09310043FC08D919C911197A3
:103C10004817590708F4AC017D0112960D90BC912C
:103C2000A02DB3CF80910E0490910F0488159905B3
:103C3000E1F446175707C8F48091040190910501FB
:103C4000009741F48DB79EB740910801509109014A
:103C5000841B950BE817F907C8F4F0930F04E09361
:103C60000E04F901718360830FC0CB010E94561CC2
:103C70007C01009759F0A801BE010E94521ECE019E
:103C80000E94EB1CC70104C0CE0102C080E090E09E
:103C9000CDB7DEB7EEE00C941A1C81E090E0F8940A
:103CA0000C94A625FB01DC0102C001900D9241504D
:103CB0005040D8F70895FB01DC018D9101908019E7
:103CC0000110D9F3990B0895FB01DC0101900D92CD
:103CD0000020E1F70895AEE0B0E0E1E7FEE10C94EA
:103CE000081C0D891E8986E08C831A8309838FEF57
:103CF0009FE79E838D83AE01475E5F4F6F89788D0E
:103D0000CE0101960E94BC1F2F813885F801E20F79
:103D1000F31F10822E96E4E00C94241CAEE0B0E079
:103D2000E4E9FEE10C940A1C85E08C838B899C8974
:103D30009A838983AE01495E5F4F6D897E89CE018A
:103D400001960E940E232E96E2E00C94261C5058F9
:103D5000BB27AA270E94BF1E0C94B51B0E94A71B5D
:103D600038F00E94AE1B20F039F49F3F19F426F47E
:103D70000C94A41B0EF4E095E7FB0C949E1BE92F1A
:103D80000E94C61B58F3BA1762077307840795078A
:103D900020F079F4A6F50C94E81B0EF4E0950B2EB8
:103DA000BA2FA02D0B01B90190010C01CA01A0018D
:103DB0001124FF27591B99F0593F50F4503E68F1E8
:103DC0001A16F040A22F232F342F4427585FF3CF29
:103DD000469537952795A795F0405395C9F77EF4FA
:103DE0001F16BA0B620B730B840BBAF09150A1F043
:103DF000FF0FBB1F661F771F881FC2F70EC0BA0FC9
:103E0000621F731F841F48F4879577956795B79550
:103E1000F7959E3F08F0B0CF9395880F08F099274B
:103E2000EE0F9795879508950E94281F0C94B51B57
:103E30000E94AE1B58F00E94A71B40F029F45F3F80
:103E400029F00C949E1B51110C94E91B0C94A41B9B
:103E50000E94C61B68F39923B1F3552391F3951B78
:103E6000550BBB27AA2762177307840738F09F5F9B
:103E70005F4F220F331F441FAA1FA9F335D00E2E08
:103E80003AF0E0E832D091505040E695001CCAF775
:103E90002BD0FE2F29D0660F771F881FBB1F261738
:103EA00037074807AB07B0E809F0BB0B802DBF010F
:103EB000FF2793585F4F3AF09E3F510578F00C94DE
:103EC0009E1B0C94E91B5F3FE4F3983ED4F3869568
:103ED00077956795B795F7959F5FC9F7880F911DFF
:103EE0009695879597F90895E1E0660F771F881FEB
:103EF000BB1F621773078407BA0720F0621B730B9E
:103F0000840BBA0BEE1F88F7E09508950E948D1F71
:103F10006894B1110C94E91B08950E94CE1B88F09F
:103F20009F5798F0B92F9927B751B0F0E1F0660F7D
:103F3000771F881F991F1AF0BA95C9F714C0B130BE
:103F400091F00E94E81BB1E008950C94E81B672FE4
:103F5000782F8827B85F39F0B93FCCF386957795ED
:103F60006795B395D9F73EF49095809570956195D6
:103F70007F4F8F4F9F4F0895ACE0B0E0E2ECFFE140
:103F80000C94FA1B7C016B018A01FC0117821682DA
:103F9000838181FFBDC1CE0101964C01F701938160
:103FA000F60193FD859193FF81916F01882309F4B8
:103FB000ABC1853239F493FD859193FF81916F01F7
:103FC000853229F4B70190E00E949B24E7CF512C61
:103FD000312C20E02032A0F48B3269F030F48032B2
:103FE00059F0833269F420612CC08D3239F080336E
:103FF00039F4216026C02260246023C0286021C0DB
:1040000027FD27C030ED380F3A3078F426FF06C080
:10401000FAE05F9E300D1124532E13C08AE0389EC3
:10402000300D1124332E20620CC08E3221F426FD77
:104030006BC1206406C08C3611F4206802C088363B
:1040400041F4F60193FD859193FF81916F018111F8
:10405000C1CF982F9F7D9554933028F40C5F1F4F4C
:10406000FFE3F9830DC0833631F0833771F0833578
:1040700009F05BC022C0F801808189830E5F1F4F69
:1040800044244394512C540115C03801F2E06F0EC2
:10409000711CF801A080B18026FF03C0652D70E07F
:1040A00002C06FEF7FEFC5012C870E9452242C01C4
:1040B00083012C852F77222E17C03801F2E06F0E76
:1040C000711CF801A080B18026FF03C0652D70E04F
:1040D00002C06FEF7FEFC5012C870E9447242C019F
:1040E0002C852068222E830123FC1BC0832D90E0A9
:1040F00048165906B0F4B70180E290E00E949B2474
:104100003A94F4CFF50127FC859127FE81915F0158
:10411000B70190E00E949B2431103A94F1E04F1ACD
:1041200051084114510471F7E5C0843611F0893605
:1041300039F5F80127FF07C0608171818281938181
:104140000C5F1F4F08C060817181072E000C880B27
:10415000990B0E5F1F4F2F76722E97FF09C0909517
:104160008095709561957F4F8F4F9F4F2068722E7D
:104170002AE030E0A4010E94EC24A82EA81844C034
:10418000853729F42F7EB22E2AE030E025C0F22FA9
:10419000F97FBF2E8F36C1F018F4883579F0B4C09E
:1041A000803719F0883721F0AFC02F2F2061B22E51
:1041B000B4FE0DC08B2D8460B82E09C024FF0AC048
:1041C0009F2F9660B92E06C028E030E005C020E1A0
:1041D00030E002C020E132E0F801B7FE07C06081A4
:1041E0007181828193810C5F1F4F06C06081718154
:1041F00080E090E00E5F1F4FA4010E94EC24A82EE7
:10420000A818FB2DFF777F2E76FE0BC0372D3E7F43
:10421000A51450F474FE0AC072FC08C0372D3E7E0F
:1042200005C0BA2C372D03C0BA2C01C0B52C34FF01
:104230000DC0FE01EA0DF11D8081803311F4397E3D
:1042400009C032FF06C0B394B39404C0832F8678AC
:1042500009F0B39433FD13C030FF06C05A2CB314D9
:1042600018F4530C5B18B32CB31468F4B70180E254
:1042700090E03C870E949B24B3943C85F5CFB31417
:1042800010F43B1801C0312C34FF12C0B70180E399
:1042900090E03C870E949B243C8532FF17C031FD93
:1042A00003C088E790E002C088E590E0B7010CC049
:1042B000832F867859F031FF02C08BE201C080E283
:1042C00037FD8DE2B70190E00E949B24A51438F4DD
:1042D000B70180E390E00E949B245A94F7CFAA9400
:1042E000F401EA0DF11D8081B70190E00E949B244A
:1042F000A110F5CF332009F451CEB70180E290E050
:104300000E949B243A94F6CFF7018681978102C0E0
:104310008FEF9FEF2C96E2E10C94161C20FD09C054
:10432000FC0123FD05C022FF02C073836283518319
:104330004083089544FD10C046FD10C0DB01FC0120
:10434000AA0FBB1FEE1FFF1F1094D1F76A0F7B1F30
:104350008E1F9F1F31E003C033E001C034E0660FC1
:10436000771F881F991F3150D1F7620F711D811D72
:10437000911D08950F931F93CF93DF938C01C80174
:104380000E945D24EC0197FD08C00E94A71A892BAA
:10439000B1F7B801CE010E94D324CE01DF91CF91B5
:1043A0001F910F910895A1E0B0E0E9EDF1E20C94C6
:1043B000001C8C01C62E7A0129830E945D24AC0169
:1043C000552729814B32510521F04D32510569F4B1
:1043D0002068CA94C11002C080E076C0C801298359
:1043E0000E945D24298197FDF7CF322F3D7FD32E88
:1043F000322F307349F5803339F5BB24BA94BC0CA5
:1044000009F44EC0C80129830E945D24298197FDCB
:1044100047C0382F3F7D383569F48D2D8264D82E02
:10442000CA94CA94CC20E1F1C8010E945D2497FF90
:104430000BC036C026FF04C02D2D2260D22E03C033
:104440003D2D3261D32ECB2C812C912C540120EDAB
:10445000280F283080F0D4FE04C0B8010E94D32475
:104460001CC02A3040F0D6FEF8CF2F7D3FEE320F31
:10447000363098F727504D2DC501B4010E949A217E
:104480004B015C018D2D8260D82ECA94CC2059F04E
:10449000C8010E945D2497FFDACFD1FC04C09CCFF5
:1044A000812C912C5401D7FE08C0B094A094909414
:1044B0008094811C911CA11CB11C2D2DB501A4015F
:1044C000C7010E948E2181E02196ECE00C941C1C17
:1044D000A1E2B0E0EEE6F2E20C94FE1B5C017A0190
:1044E000CE0101966C0180E2F60111928A95E9F7FE
:1044F000F501838040E050E0912C712C70E0A1E048
:10450000B0E0F90183FC859183FE81918F01982FA2
:104510009F01811103C080E090E07CC08E3519F4CA
:104520004115510549F1E72FF0E0E417F5073CF498
:104530008D3559F18D3219F4772001F103C07110D6
:1045400001C0982E892F8695869586958601080F3D
:10455000111D892F87703D0101C0660C8A95EAF70D
:10456000F801808186298083991559F0991510F4F6
:104570009F5FE8CF9150E6CF71E004C07724739439
:1045800001C0712C4F5F5F4FBCCF772019F08E8137
:1045900080628E83711103C09924939416C0F60132
:1045A0009E012F5D3F4F808180958193E217F30735
:1045B000D1F7F2CFE114F10429F0F7018083C701AC
:1045C00001967C016150912CF9F0C50169A30E940C
:1045D0005D2469A197FD16C0282F2695269526955E
:1045E000F601E20FF11D208130E0AC014770552744
:1045F00002C0359527954A95E2F720FDDBCFB5013E
:104600000E94D324911087CFE114F10411F0F70137
:104610001082C801A196EEE00C941A1C4F925F9292
:104620007F928F929F92AF92BF92CF92DF92EF9242
:10463000FF920F931F93CF93DF931F92CDB7DEB7F7
:104640006C012B015A01FC0117821682712CF601B4
:10465000F380F201F3FC8591F3FE8191382F2F0155
:10466000882309F4F3C090E039830E94A71A3981A6
:10467000892B21F0C6010E94BA21E9CF353241F4DD
:10468000F201F3FC3591F3FE31912F01353269F4DB
:10469000C60139830E945D24398197FDD5C0381742
:1046A000B1F2B6010E94D324D1C03A3239F4F3FCFE
:1046B0003591F3FE31912F0151E001C050E04201EC
:1046C00010E020ED230F2A3090F45260612F70E04B
:1046D00080E090E040E259830E949A21162FF40175
:1046E000F3FC3591F3FE31914F015981EACF052F4B
:1046F000232F240151FF03C0111102C0A7C01FEFD7
:10470000383619F03C3659F011C0F401F3FC25910C
:10471000F3FE21912F01283649F4052F086004602B
:10472000F201F3FC2591F3FE21912F01222309F4DC
:104730008DC0622F70E089EC90E029830E943C24B8
:104740002981892B09F482C000FD07C0F501E080B2
:10475000F180C50102965C0102C0E12CF12C2E36DD
:1047600051F4F6014681578160E070E0202FC701C7
:104770000E948E216CCF233691F401FF11E0C60117
:104780000E945D2497FD60C0E114F10429F0F70157
:104790008083C70101967C01115089F751C02B35E8
:1047A00059F49201A701612FC6010E9468222C01D1
:1047B000892B09F045C03FC0C60129830E94BA2158
:1047C000298197FD41C02F3659F128F4243631F163
:1047D000293649F127C0233769F02537F9F022C07F
:1047E000E114F10429F0F7018082C70101967C01F0
:1047F000115071F0C6010E945D244C0197FD08C064
:104800000E94A71A892B61F3B601C4010E94D32428
:10481000E114F104A9F0F701108212C0006203C094
:10482000006101C00064202FA701612FC6010E9412
:10483000D321811105C0F6018381807329F406C05C
:1048400000FD05CF739403CF772019F0872D90E0FA
:1048500002C08FEF9FEF0F90DF91CF911F910F91CB
:10486000FF90EF90DF90CF90BF90AF909F908F9090
:104870007F905F904F900895FC010590061621F0FF
:104880000020D9F7C00108953197CF010895FC01A8
:104890000590615070400110D8F7809590958E0F6B
:1048A0009F1F0895FC016150704001900110D8F7DE
:1048B000809590958E0F9F1F0895CF93DF93EC0105
:1048C0002B8120FF33C026FF0AC02F7B2B838E81D4
:1048D0009F8101969F838E838A8190E029C022FF69
:1048E0000FC0E881F9818081082E000C990B009798
:1048F00019F420622B831AC03196F983E8830EC025
:10490000EA85FB85099597FF09C02B81019611F077
:1049100080E201C080E1822B8B8308C02E813F8121
:104920002F5F3F4F3F832E83992702C08FEF9FEF6A
:10493000DF91CF9108950F931F93CF93DF93FB01E6
:10494000238121FD03C08FEF9FEF28C022FF16C0F7
:1049500046815781248135814217530744F4A08151
:10496000B1819D012F5F3F4F318320838C9326813E
:1049700037812F5F3F4F3783268310C0EB01092F0C
:10498000182F0084F185E02D0995892BE1F68E81A1
:104990009F8101969F838E83812F902FDF91CF91EE
:1049A0001F910F910895FB01238120FF12C026FD66
:1049B00010C08F3F3FEF930761F082832F7D20640B
:1049C0002383268137812150310937832683992714
:1049D00008958FEF9FEF0895FA01AA27283051F12B
:1049E000203181F1E8946F936E7F6E5F7F4F8F4F20
:1049F0009F4FAF4FB1E03ED0B4E03CD0670F781F7F
:104A0000891F9A1FA11D680F791F8A1F911DA11D63
:104A10006A0F711D811D911DA11D20D009F468949C
:104A20003F912AE0269F11243019305D3193DEF644
:104A3000CF010895462F4770405D4193B3E00FD0FA
:104A4000C9F7F6CF462F4F70405D4A3318F0495DE5
:104A500031FD4052419302D0A9F7EACFB4E0A695C8
:104A60009795879577956795BA95C9F700976105EA
:104A7000710508959B01AC010A2E06945795479540
:104A800037952795BA95C9F7620F731F841F951F35
:104A9000A01D0895991B79E004C0991F961708F08E
:104AA000961B881F7A95C9F780950895AA1BBB1B92
:104AB00051E107C0AA1FBB1FA617B70710F0A61B1E
:104AC000B70B881F991F5A95A9F780959095BC013F
:104AD000CD01089597FB072E16F4009407D077FDBB
:104AE00009D00E94562507FC05D03EF4909581958B
:104AF0009F4F0895709561957F4F0895A1E21A2EFA
:104B0000AA1BBB1BFD010DC0AA1FBB1FEE1FFF1F71
:104B1000A217B307E407F50720F0A21BB30BE40BC1
:104B2000F50B661F771F881F991F1A9469F7609508
:104B30007095809590959B01AC01BD01CF010895C2
:104B4000EE0FFF1F0590F491E02D099410E0C9EAE3
:104B5000D0E004C0FE010E94A0252196CA3AD107E8
:064B6000C9F7F894FFCF35
:104B6600FE01FE010000120480003F065B4F666DE9
:104B76007D077F6F777C395E79710086227E6D00B6
:104B8600000230066300044080523F065B4F666DAC
:104B96007D277F6F0000004800535F777F393F799C
:104BA600713D76061F693815373F7367316D783E5C
:104BB6002A1D766E5B39640F0008205F7C585E7B89
:104BC600316F74040E753055545C7367506D781CE4
:104BD6002A1D766E47460670010000000056112613
:104BE600110101E90D1E110A11EA0D000000006C09
:104BF60001D5000401B301350113012701000000AE
:104C0600005C0D4B0D240D1B0DF40CD50C790C0519
:104C16000CFF01520E1B0EF90D6A0E00000000B4C7
:104C26000D4B0D240D1B0DF40CD50C790C050C87C2
:104C36000D520E1B0EF90D6A0E7950505C50000095
:104C46000025303278256400550044004C0052009F
:104C56000D0A0053657474696E67205254432074BC
:104C66006F3A2000313200313268204D6F646500A2
:104C7600323400323468204D6F646500256C753A15
:104C8600256C753A256C753A256C75003100300037
:00000001FF
